{
  "_format": "hh-sol-artifact-1",
  "contractName": "BiometricToken",
  "sourceName": "contracts/BiometricToken.sol",
  "abi": [
    {
      "inputs": [],
      "stateMutability": "nonpayable",
      "type": "constructor"
    },
    {
      "inputs": [
        {
          "internalType": "address",
          "name": "sender",
          "type": "address"
        },
        {
          "internalType": "uint256",
          "name": "tokenId",
          "type": "uint256"
        },
        {
          "internalType": "address",
          "name": "owner",
          "type": "address"
        }
      ],
      "name": "ERC721IncorrectOwner",
      "type": "error"
    },
    {
      "inputs": [
        {
          "internalType": "address",
          "name": "operator",
          "type": "address"
        },
        {
          "internalType": "uint256",
          "name": "tokenId",
          "type": "uint256"
        }
      ],
      "name": "ERC721InsufficientApproval",
      "type": "error"
    },
    {
      "inputs": [
        {
          "internalType": "address",
          "name": "approver",
          "type": "address"
        }
      ],
      "name": "ERC721InvalidApprover",
      "type": "error"
    },
    {
      "inputs": [
        {
          "internalType": "address",
          "name": "operator",
          "type": "address"
        }
      ],
      "name": "ERC721InvalidOperator",
      "type": "error"
    },
    {
      "inputs": [
        {
          "internalType": "address",
          "name": "owner",
          "type": "address"
        }
      ],
      "name": "ERC721InvalidOwner",
      "type": "error"
    },
    {
      "inputs": [
        {
          "internalType": "address",
          "name": "receiver",
          "type": "address"
        }
      ],
      "name": "ERC721InvalidReceiver",
      "type": "error"
    },
    {
      "inputs": [
        {
          "internalType": "address",
          "name": "sender",
          "type": "address"
        }
      ],
      "name": "ERC721InvalidSender",
      "type": "error"
    },
    {
      "inputs": [
        {
          "internalType": "uint256",
          "name": "tokenId",
          "type": "uint256"
        }
      ],
      "name": "ERC721NonexistentToken",
      "type": "error"
    },
    {
      "inputs": [
        {
          "internalType": "address",
          "name": "owner",
          "type": "address"
        }
      ],
      "name": "OwnableInvalidOwner",
      "type": "error"
    },
    {
      "inputs": [
        {
          "internalType": "address",
          "name": "account",
          "type": "address"
        }
      ],
      "name": "OwnableUnauthorizedAccount",
      "type": "error"
    },
    {
      "anonymous": false,
      "inputs": [
        {
          "indexed": true,
          "internalType": "address",
          "name": "owner",
          "type": "address"
        },
        {
          "indexed": true,
          "internalType": "address",
          "name": "approved",
          "type": "address"
        },
        {
          "indexed": true,
          "internalType": "uint256",
          "name": "tokenId",
          "type": "uint256"
        }
      ],
      "name": "Approval",
      "type": "event"
    },
    {
      "anonymous": false,
      "inputs": [
        {
          "indexed": true,
          "internalType": "address",
          "name": "owner",
          "type": "address"
        },
        {
          "indexed": true,
          "internalType": "address",
          "name": "operator",
          "type": "address"
        },
        {
          "indexed": false,
          "internalType": "bool",
          "name": "approved",
          "type": "bool"
        }
      ],
      "name": "ApprovalForAll",
      "type": "event"
    },
    {
      "anonymous": false,
      "inputs": [
        {
          "indexed": false,
          "internalType": "uint256",
          "name": "_fromTokenId",
          "type": "uint256"
        },
        {
          "indexed": false,
          "internalType": "uint256",
          "name": "_toTokenId",
          "type": "uint256"
        }
      ],
      "name": "BatchMetadataUpdate",
      "type": "event"
    },
    {
      "anonymous": false,
      "inputs": [
        {
          "indexed": true,
          "internalType": "address",
          "name": "to",
          "type": "address"
        },
        {
          "indexed": true,
          "internalType": "uint256",
          "name": "tokenId",
          "type": "uint256"
        },
        {
          "indexed": false,
          "internalType": "string",
          "name": "userId",
          "type": "string"
        },
        {
          "indexed": false,
          "internalType": "string",
          "name": "biometricHash",
          "type": "string"
        },
        {
          "indexed": false,
          "internalType": "string",
          "name": "biometricType",
          "type": "string"
        }
      ],
      "name": "BiometricTokenMinted",
      "type": "event"
    },
    {
      "anonymous": false,
      "inputs": [
        {
          "indexed": false,
          "internalType": "uint256",
          "name": "_tokenId",
          "type": "uint256"
        }
      ],
      "name": "MetadataUpdate",
      "type": "event"
    },
    {
      "anonymous": false,
      "inputs": [
        {
          "indexed": true,
          "internalType": "address",
          "name": "previousOwner",
          "type": "address"
        },
        {
          "indexed": true,
          "internalType": "address",
          "name": "newOwner",
          "type": "address"
        }
      ],
      "name": "OwnershipTransferred",
      "type": "event"
    },
    {
      "anonymous": false,
      "inputs": [
        {
          "indexed": true,
          "internalType": "address",
          "name": "from",
          "type": "address"
        },
        {
          "indexed": true,
          "internalType": "address",
          "name": "to",
          "type": "address"
        },
        {
          "indexed": true,
          "internalType": "uint256",
          "name": "tokenId",
          "type": "uint256"
        }
      ],
      "name": "Transfer",
      "type": "event"
    },
    {
      "inputs": [
        {
          "internalType": "address",
          "name": "to",
          "type": "address"
        },
        {
          "internalType": "uint256",
          "name": "tokenId",
          "type": "uint256"
        }
      ],
      "name": "approve",
      "outputs": [],
      "stateMutability": "nonpayable",
      "type": "function"
    },
    {
      "inputs": [
        {
          "internalType": "address",
          "name": "owner",
          "type": "address"
        }
      ],
      "name": "balanceOf",
      "outputs": [
        {
          "internalType": "uint256",
          "name": "",
          "type": "uint256"
        }
      ],
      "stateMutability": "view",
      "type": "function"
    },
    {
      "inputs": [
        {
          "internalType": "uint256",
          "name": "",
          "type": "uint256"
        }
      ],
      "name": "biometricHashes",
      "outputs": [
        {
          "internalType": "string",
          "name": "",
          "type": "string"
        }
      ],
      "stateMutability": "view",
      "type": "function"
    },
    {
      "inputs": [
        {
          "internalType": "uint256",
          "name": "",
          "type": "uint256"
        }
      ],
      "name": "biometricTypes",
      "outputs": [
        {
          "internalType": "string",
          "name": "",
          "type": "string"
        }
      ],
      "stateMutability": "view",
      "type": "function"
    },
    {
      "inputs": [
        {
          "internalType": "uint256",
          "name": "tokenId",
          "type": "uint256"
        }
      ],
      "name": "getApproved",
      "outputs": [
        {
          "internalType": "address",
          "name": "",
          "type": "address"
        }
      ],
      "stateMutability": "view",
      "type": "function"
    },
    {
      "inputs": [
        {
          "internalType": "uint256",
          "name": "tokenId",
          "type": "uint256"
        }
      ],
      "name": "getBiometricData",
      "outputs": [
        {
          "internalType": "string",
          "name": "userId",
          "type": "string"
        },
        {
          "internalType": "string",
          "name": "biometricHash",
          "type": "string"
        },
        {
          "internalType": "string",
          "name": "biometricType",
          "type": "string"
        }
      ],
      "stateMutability": "view",
      "type": "function"
    },
    {
      "inputs": [
        {
          "internalType": "string",
          "name": "userId",
          "type": "string"
        }
      ],
      "name": "getTokensByUser",
      "outputs": [
        {
          "internalType": "uint256[]",
          "name": "",
          "type": "uint256[]"
        }
      ],
      "stateMutability": "view",
      "type": "function"
    },
    {
      "inputs": [
        {
          "internalType": "address",
          "name": "owner",
          "type": "address"
        },
        {
          "internalType": "address",
          "name": "operator",
          "type": "address"
        }
      ],
      "name": "isApprovedForAll",
      "outputs": [
        {
          "internalType": "bool",
          "name": "",
          "type": "bool"
        }
      ],
      "stateMutability": "view",
      "type": "function"
    },
    {
      "inputs": [
        {
          "internalType": "address",
          "name": "to",
          "type": "address"
        },
        {
          "internalType": "string",
          "name": "userId",
          "type": "string"
        },
        {
          "internalType": "string",
          "name": "biometricHash",
          "type": "string"
        },
        {
          "internalType": "string",
          "name": "biometricType",
          "type": "string"
        },
        {
          "internalType": "string",
          "name": "tokenURI",
          "type": "string"
        }
      ],
      "name": "mintBiometricToken",
      "outputs": [
        {
          "internalType": "uint256",
          "name": "",
          "type": "uint256"
        }
      ],
      "stateMutability": "nonpayable",
      "type": "function"
    },
    {
      "inputs": [],
      "name": "name",
      "outputs": [
        {
          "internalType": "string",
          "name": "",
          "type": "string"
        }
      ],
      "stateMutability": "view",
      "type": "function"
    },
    {
      "inputs": [],
      "name": "nextTokenId",
      "outputs": [
        {
          "internalType": "uint256",
          "name": "",
          "type": "uint256"
        }
      ],
      "stateMutability": "view",
      "type": "function"
    },
    {
      "inputs": [],
      "name": "owner",
      "outputs": [
        {
          "internalType": "address",
          "name": "",
          "type": "address"
        }
      ],
      "stateMutability": "view",
      "type": "function"
    },
    {
      "inputs": [
        {
          "internalType": "uint256",
          "name": "tokenId",
          "type": "uint256"
        }
      ],
      "name": "ownerOf",
      "outputs": [
        {
          "internalType": "address",
          "name": "",
          "type": "address"
        }
      ],
      "stateMutability": "view",
      "type": "function"
    },
    {
      "inputs": [],
      "name": "renounceOwnership",
      "outputs": [],
      "stateMutability": "nonpayable",
      "type": "function"
    },
    {
      "inputs": [
        {
          "internalType": "address",
          "name": "from",
          "type": "address"
        },
        {
          "internalType": "address",
          "name": "to",
          "type": "address"
        },
        {
          "internalType": "uint256",
          "name": "tokenId",
          "type": "uint256"
        }
      ],
      "name": "safeTransferFrom",
      "outputs": [],
      "stateMutability": "nonpayable",
      "type": "function"
    },
    {
      "inputs": [
        {
          "internalType": "address",
          "name": "from",
          "type": "address"
        },
        {
          "internalType": "address",
          "name": "to",
          "type": "address"
        },
        {
          "internalType": "uint256",
          "name": "tokenId",
          "type": "uint256"
        },
        {
          "internalType": "bytes",
          "name": "data",
          "type": "bytes"
        }
      ],
      "name": "safeTransferFrom",
      "outputs": [],
      "stateMutability": "nonpayable",
      "type": "function"
    },
    {
      "inputs": [
        {
          "internalType": "address",
          "name": "operator",
          "type": "address"
        },
        {
          "internalType": "bool",
          "name": "approved",
          "type": "bool"
        }
      ],
      "name": "setApprovalForAll",
      "outputs": [],
      "stateMutability": "nonpayable",
      "type": "function"
    },
    {
      "inputs": [
        {
          "internalType": "bytes4",
          "name": "interfaceId",
          "type": "bytes4"
        }
      ],
      "name": "supportsInterface",
      "outputs": [
        {
          "internalType": "bool",
          "name": "",
          "type": "bool"
        }
      ],
      "stateMutability": "view",
      "type": "function"
    },
    {
      "inputs": [],
      "name": "symbol",
      "outputs": [
        {
          "internalType": "string",
          "name": "",
          "type": "string"
        }
      ],
      "stateMutability": "view",
      "type": "function"
    },
    {
      "inputs": [
        {
          "internalType": "uint256",
          "name": "tokenId",
          "type": "uint256"
        }
      ],
      "name": "tokenURI",
      "outputs": [
        {
          "internalType": "string",
          "name": "",
          "type": "string"
        }
      ],
      "stateMutability": "view",
      "type": "function"
    },
    {
      "inputs": [
        {
          "internalType": "address",
          "name": "from",
          "type": "address"
        },
        {
          "internalType": "address",
          "name": "to",
          "type": "address"
        },
        {
          "internalType": "uint256",
          "name": "tokenId",
          "type": "uint256"
        }
      ],
      "name": "transferFrom",
      "outputs": [],
      "stateMutability": "nonpayable",
      "type": "function"
    },
    {
      "inputs": [
        {
          "internalType": "address",
          "name": "newOwner",
          "type": "address"
        }
      ],
      "name": "transferOwnership",
      "outputs": [],
      "stateMutability": "nonpayable",
      "type": "function"
    },
    {
      "inputs": [
        {
          "internalType": "uint256",
          "name": "",
          "type": "uint256"
        }
      ],
      "name": "userIds",
      "outputs": [
        {
          "internalType": "string",
          "name": "",
          "type": "string"
        }
      ],
      "stateMutability": "view",
      "type": "function"
    }
  ],
  "bytecode": "0x608060405260016008553480156200001657600080fd5b50336040518060400160405280600e81526020017f42696f6d6574726963546f6b656e0000000000000000000000000000000000008152506040518060400160405280600381526020017f42494f0000000000000000000000000000000000000000000000000000000000815250816000908162000095919062000477565b508060019081620000a7919062000477565b505050600073ffffffffffffffffffffffffffffffffffffffff168173ffffffffffffffffffffffffffffffffffffffff16036200011f5760006040517f1e4fbdf7000000000000000000000000000000000000000000000000000000008152600401620001169190620005a3565b60405180910390fd5b62000130816200013760201b60201c565b50620005c0565b6000600760009054906101000a900473ffffffffffffffffffffffffffffffffffffffff16905081600760006101000a81548173ffffffffffffffffffffffffffffffffffffffff021916908373ffffffffffffffffffffffffffffffffffffffff1602179055508173ffffffffffffffffffffffffffffffffffffffff168173ffffffffffffffffffffffffffffffffffffffff167f8be0079c531659141344cd1fd0a4f28419497f9722a3daafe3b4186f6b6457e060405160405180910390a35050565b600081519050919050565b7f4e487b7100000000000000000000000000000000000000000000000000000000600052604160045260246000fd5b7f4e487b7100000000000000000000000000000000000000000000000000000000600052602260045260246000fd5b600060028204905060018216806200027f57607f821691505b60208210810362000295576200029462000237565b5b50919050565b60008190508160005260206000209050919050565b60006020601f8301049050919050565b600082821b905092915050565b600060088302620002ff7fffffffffffffffffffffffffffffffffffffffffffffffffffffffffffffffff82620002c0565b6200030b8683620002c0565b95508019841693508086168417925050509392505050565b6000819050919050565b6000819050919050565b600062000358620003526200034c8462000323565b6200032d565b62000323565b9050919050565b6000819050919050565b620003748362000337565b6200038c62000383826200035f565b848454620002cd565b825550505050565b600090565b620003a362000394565b620003b081848462000369565b505050565b5b81811015620003d857620003cc60008262000399565b600181019050620003b6565b5050565b601f8211156200042757620003f1816200029b565b620003fc84620002b0565b810160208510156200040c578190505b620004246200041b85620002b0565b830182620003b5565b50505b505050565b600082821c905092915050565b60006200044c600019846008026200042c565b1980831691505092915050565b600062000467838362000439565b9150826002028217905092915050565b6200048282620001fd565b67ffffffffffffffff8111156200049e576200049d62000208565b5b620004aa825462000266565b620004b7828285620003dc565b600060209050601f831160018114620004ef5760008415620004da578287015190505b620004e6858262000459565b86555062000556565b601f198416620004ff866200029b565b60005b82811015620005295784890151825560018201915060208501945060208101905062000502565b8683101562000549578489015162000545601f89168262000439565b8355505b6001600288020188555050505b505050505050565b600073ffffffffffffffffffffffffffffffffffffffff82169050919050565b60006200058b826200055e565b9050919050565b6200059d816200057e565b82525050565b6000602082019050620005ba600083018462000592565b92915050565b61315c80620005d06000396000f3fe608060405234801561001057600080fd5b506004361061014d5760003560e01c80636352211e116100c357806395d89b411161007c57806395d89b41146103ec578063a22cb4651461040a578063b88d4fde14610426578063c87b56dd14610442578063e985e9c514610472578063f2fde38b146104a25761014d565b80636352211e1461031457806366ad25df1461034457806370a0823114610376578063715018a6146103a657806375794a3c146103b05780638da5cb5b146103ce5761014d565b80632dca734f116101155780632dca734f146102085780632f37a90a146102385780633c64b6b41461026857806342842e0e146102985780634635fd68146102b45780635cb1a485146102e45761014d565b806301ffc9a71461015257806306fdde0314610182578063081812fc146101a0578063095ea7b3146101d057806323b872dd146101ec575b600080fd5b61016c6004803603810190610167919061225f565b6104be565b60405161017991906122a7565b60405180910390f35b61018a61051f565b6040516101979190612352565b60405180910390f35b6101ba60048036038101906101b591906123aa565b6105b1565b6040516101c79190612418565b60405180910390f35b6101ea60048036038101906101e5919061245f565b6105cd565b005b6102066004803603810190610201919061249f565b6105e3565b005b610222600480360381019061021d9190612627565b6106e5565b60405161022f9190612721565b60405180910390f35b610252600480360381019061024d91906123aa565b6107e7565b60405161025f9190612352565b60405180910390f35b610282600480360381019061027d91906123aa565b610887565b60405161028f9190612352565b60405180910390f35b6102b260048036038101906102ad919061249f565b610927565b005b6102ce60048036038101906102c991906123aa565b610947565b6040516102db9190612352565b60405180910390f35b6102fe60048036038101906102f9919061273c565b6109e7565b60405161030b9190612843565b60405180910390f35b61032e600480360381019061032991906123aa565b610b7f565b60405161033b9190612418565b60405180910390f35b61035e600480360381019061035991906123aa565b610b91565b60405161036d93929190612865565b60405180910390f35b610390600480360381019061038b91906128b1565b610d8a565b60405161039d9190612721565b60405180910390f35b6103ae610e44565b005b6103b8610e58565b6040516103c59190612721565b60405180910390f35b6103d6610e5e565b6040516103e39190612418565b60405180910390f35b6103f4610e88565b6040516104019190612352565b60405180910390f35b610424600480360381019061041f919061290a565b610f1a565b005b610440600480360381019061043b91906129eb565b610f30565b005b61045c600480360381019061045791906123aa565b610f55565b6040516104699190612352565b60405180910390f35b61048c60048036038101906104879190612a6e565b611068565b60405161049991906122a7565b60405180910390f35b6104bc60048036038101906104b791906128b1565b6110fc565b005b6000634906490660e01b7bffffffffffffffffffffffffffffffffffffffffffffffffffffffff1916827bffffffffffffffffffffffffffffffffffffffffffffffffffffffff19161480610518575061051782611182565b5b9050919050565b60606000805461052e90612add565b80601f016020809104026020016040519081016040528092919081815260200182805461055a90612add565b80156105a75780601f1061057c576101008083540402835291602001916105a7565b820191906000526020600020905b81548152906001019060200180831161058a57829003601f168201915b5050505050905090565b60006105bc82611264565b506105c6826112ec565b9050919050565b6105df82826105da611329565b611331565b5050565b600073ffffffffffffffffffffffffffffffffffffffff168273ffffffffffffffffffffffffffffffffffffffff16036106555760006040517f64a0ae9200000000000000000000000000000000000000000000000000000000815260040161064c9190612418565b60405180910390fd5b60006106698383610664611329565b611343565b90508373ffffffffffffffffffffffffffffffffffffffff168173ffffffffffffffffffffffffffffffffffffffff16146106df578382826040517f64283d7b0000000000000000000000000000000000000000000000000000000081526004016106d693929190612b0e565b60405180910390fd5b50505050565b60006106ef61155d565b6000600854905061070087826115e4565b61070a8184611602565b8560096000838152602001908152602001600020908161072a9190612cf1565b5084600a6000838152602001908152602001600020908161074b9190612cf1565b5083600b6000838152602001908152602001600020908161076c9190612cf1565b50808773ffffffffffffffffffffffffffffffffffffffff167faea1eae691e986080360ec9e7233f807b4ee23241b79b176d86857992aa562378888886040516107b893929190612865565b60405180910390a36001600860008282546107d39190612df2565b925050819055508091505095945050505050565b600a602052806000526040600020600091509050805461080690612add565b80601f016020809104026020016040519081016040528092919081815260200182805461083290612add565b801561087f5780601f106108545761010080835404028352916020019161087f565b820191906000526020600020905b81548152906001019060200180831161086257829003601f168201915b505050505081565b600b60205280600052604060002060009150905080546108a690612add565b80601f01602080910402602001604051908101604052809291908181526020018280546108d290612add565b801561091f5780601f106108f45761010080835404028352916020019161091f565b820191906000526020600020905b81548152906001019060200180831161090257829003601f168201915b505050505081565b61094283838360405180602001604052806000815250610f30565b505050565b6009602052806000526040600020600091509050805461096690612add565b80601f016020809104026020016040519081016040528092919081815260200182805461099290612add565b80156109df5780601f106109b4576101008083540402835291602001916109df565b820191906000526020600020905b8154815290600101906020018083116109c257829003601f168201915b505050505081565b6060600060016008546109fa9190612e26565b67ffffffffffffffff811115610a1357610a126124fc565b5b604051908082528060200260200182016040528015610a415781602001602082028036833780820191505090505b509050600080600190505b600854811015610acd57848051906020012060096000838152602001908152602001600020604051610a7e9190612efd565b604051809103902003610aba5780838381518110610a9f57610a9e612f14565b5b6020026020010181815250508180610ab690612f43565b9250505b8080610ac590612f43565b915050610a4c565b5060008167ffffffffffffffff811115610aea57610ae96124fc565b5b604051908082528060200260200182016040528015610b185781602001602082028036833780820191505090505b50905060005b82811015610b7357838181518110610b3957610b38612f14565b5b6020026020010151828281518110610b5457610b53612f14565b5b6020026020010181815250508080610b6b90612f43565b915050610b1e565b50809350505050919050565b6000610b8a82611264565b9050919050565b6060806060610b9f84610b7f565b5060096000858152602001908152602001600020600a6000868152602001908152602001600020600b6000878152602001908152602001600020828054610be590612add565b80601f0160208091040260200160405190810160405280929190818152602001828054610c1190612add565b8015610c5e5780601f10610c3357610100808354040283529160200191610c5e565b820191906000526020600020905b815481529060010190602001808311610c4157829003601f168201915b50505050509250818054610c7190612add565b80601f0160208091040260200160405190810160405280929190818152602001828054610c9d90612add565b8015610cea5780601f10610cbf57610100808354040283529160200191610cea565b820191906000526020600020905b815481529060010190602001808311610ccd57829003601f168201915b50505050509150808054610cfd90612add565b80601f0160208091040260200160405190810160405280929190818152602001828054610d2990612add565b8015610d765780601f10610d4b57610100808354040283529160200191610d76565b820191906000526020600020905b815481529060010190602001808311610d5957829003601f168201915b505050505090509250925092509193909250565b60008073ffffffffffffffffffffffffffffffffffffffff168273ffffffffffffffffffffffffffffffffffffffff1603610dfd5760006040517f89c62b64000000000000000000000000000000000000000000000000000000008152600401610df49190612418565b60405180910390fd5b600360008373ffffffffffffffffffffffffffffffffffffffff1673ffffffffffffffffffffffffffffffffffffffff168152602001908152602001600020549050919050565b610e4c61155d565b610e56600061165e565b565b60085481565b6000600760009054906101000a900473ffffffffffffffffffffffffffffffffffffffff16905090565b606060018054610e9790612add565b80601f0160208091040260200160405190810160405280929190818152602001828054610ec390612add565b8015610f105780601f10610ee557610100808354040283529160200191610f10565b820191906000526020600020905b815481529060010190602001808311610ef357829003601f168201915b5050505050905090565b610f2c610f25611329565b8383611724565b5050565b610f3b8484846105e3565b610f4f610f46611329565b85858585611893565b50505050565b6060610f6082611264565b506000600660008481526020019081526020016000208054610f8190612add565b80601f0160208091040260200160405190810160405280929190818152602001828054610fad90612add565b8015610ffa5780601f10610fcf57610100808354040283529160200191610ffa565b820191906000526020600020905b815481529060010190602001808311610fdd57829003601f168201915b50505050509050600061100b611a44565b90506000815103611020578192505050611063565b60008251111561105557808260405160200161103d929190612fc7565b60405160208183030381529060405292505050611063565b61105e84611a5b565b925050505b919050565b6000600560008473ffffffffffffffffffffffffffffffffffffffff1673ffffffffffffffffffffffffffffffffffffffff16815260200190815260200160002060008373ffffffffffffffffffffffffffffffffffffffff1673ffffffffffffffffffffffffffffffffffffffff16815260200190815260200160002060009054906101000a900460ff16905092915050565b61110461155d565b600073ffffffffffffffffffffffffffffffffffffffff168173ffffffffffffffffffffffffffffffffffffffff16036111765760006040517f1e4fbdf700000000000000000000000000000000000000000000000000000000815260040161116d9190612418565b60405180910390fd5b61117f8161165e565b50565b60007f80ac58cd000000000000000000000000000000000000000000000000000000007bffffffffffffffffffffffffffffffffffffffffffffffffffffffff1916827bffffffffffffffffffffffffffffffffffffffffffffffffffffffff1916148061124d57507f5b5e139f000000000000000000000000000000000000000000000000000000007bffffffffffffffffffffffffffffffffffffffffffffffffffffffff1916827bffffffffffffffffffffffffffffffffffffffffffffffffffffffff1916145b8061125d575061125c82611ac4565b5b9050919050565b60008061127083611b2e565b9050600073ffffffffffffffffffffffffffffffffffffffff168173ffffffffffffffffffffffffffffffffffffffff16036112e357826040517f7e2732890000000000000000000000000000000000000000000000000000000081526004016112da9190612721565b60405180910390fd5b80915050919050565b60006004600083815260200190815260200160002060009054906101000a900473ffffffffffffffffffffffffffffffffffffffff169050919050565b600033905090565b61133e8383836001611b6b565b505050565b60008061134f84611b2e565b9050600073ffffffffffffffffffffffffffffffffffffffff168373ffffffffffffffffffffffffffffffffffffffff161461139157611390818486611d30565b5b600073ffffffffffffffffffffffffffffffffffffffff168173ffffffffffffffffffffffffffffffffffffffff1614611422576113d3600085600080611b6b565b6001600360008373ffffffffffffffffffffffffffffffffffffffff1673ffffffffffffffffffffffffffffffffffffffff168152602001908152602001600020600082825403925050819055505b600073ffffffffffffffffffffffffffffffffffffffff168573ffffffffffffffffffffffffffffffffffffffff16146114a5576001600360008773ffffffffffffffffffffffffffffffffffffffff1673ffffffffffffffffffffffffffffffffffffffff168152602001908152602001600020600082825401925050819055505b846002600086815260200190815260200160002060006101000a81548173ffffffffffffffffffffffffffffffffffffffff021916908373ffffffffffffffffffffffffffffffffffffffff160217905550838573ffffffffffffffffffffffffffffffffffffffff168273ffffffffffffffffffffffffffffffffffffffff167fddf252ad1be2c89b69c2b068fc378daa952ba7f163c4a11628f55a4df523b3ef60405160405180910390a4809150509392505050565b611565611329565b73ffffffffffffffffffffffffffffffffffffffff16611583610e5e565b73ffffffffffffffffffffffffffffffffffffffff16146115e2576115a6611329565b6040517f118cdaa70000000000000000000000000000000000000000000000000000000081526004016115d99190612418565b60405180910390fd5b565b6115fe828260405180602001604052806000815250611df4565b5050565b806006600084815260200190815260200160002090816116229190612cf1565b507ff8e1a15aba9398e019f0b49df1a4fde98ee17ae345cb5f6b5e2c27f5033e8ce7826040516116529190612721565b60405180910390a15050565b6000600760009054906101000a900473ffffffffffffffffffffffffffffffffffffffff16905081600760006101000a81548173ffffffffffffffffffffffffffffffffffffffff021916908373ffffffffffffffffffffffffffffffffffffffff1602179055508173ffffffffffffffffffffffffffffffffffffffff168173ffffffffffffffffffffffffffffffffffffffff167f8be0079c531659141344cd1fd0a4f28419497f9722a3daafe3b4186f6b6457e060405160405180910390a35050565b600073ffffffffffffffffffffffffffffffffffffffff168273ffffffffffffffffffffffffffffffffffffffff160361179557816040517f5b08ba1800000000000000000000000000000000000000000000000000000000815260040161178c9190612418565b60405180910390fd5b80600560008573ffffffffffffffffffffffffffffffffffffffff1673ffffffffffffffffffffffffffffffffffffffff16815260200190815260200160002060008473ffffffffffffffffffffffffffffffffffffffff1673ffffffffffffffffffffffffffffffffffffffff16815260200190815260200160002060006101000a81548160ff0219169083151502179055508173ffffffffffffffffffffffffffffffffffffffff168373ffffffffffffffffffffffffffffffffffffffff167f17307eab39ab6107e8899845ad3d59bd9653f200f220920489ca2b5937696c318360405161188691906122a7565b60405180910390a3505050565b60008373ffffffffffffffffffffffffffffffffffffffff163b1115611a3d578273ffffffffffffffffffffffffffffffffffffffff1663150b7a02868685856040518563ffffffff1660e01b81526004016118f29493929190613040565b6020604051808303816000875af192505050801561192e57506040513d601f19601f8201168201806040525081019061192b91906130a1565b60015b6119b2573d806000811461195e576040519150601f19603f3d011682016040523d82523d6000602084013e611963565b606091505b5060008151036119aa57836040517f64a0ae920000000000000000000000000000000000000000000000000000000081526004016119a19190612418565b60405180910390fd5b805181602001fd5b63150b7a0260e01b7bffffffffffffffffffffffffffffffffffffffffffffffffffffffff1916817bffffffffffffffffffffffffffffffffffffffffffffffffffffffff191614611a3b57836040517f64a0ae92000000000000000000000000000000000000000000000000000000008152600401611a329190612418565b60405180910390fd5b505b5050505050565b606060405180602001604052806000815250905090565b6060611a6682611264565b506000611a71611a44565b90506000815111611a915760405180602001604052806000815250611abc565b80611a9b84611e18565b604051602001611aac929190612fc7565b6040516020818303038152906040525b915050919050565b60007f01ffc9a7000000000000000000000000000000000000000000000000000000007bffffffffffffffffffffffffffffffffffffffffffffffffffffffff1916827bffffffffffffffffffffffffffffffffffffffffffffffffffffffff1916149050919050565b60006002600083815260200190815260200160002060009054906101000a900473ffffffffffffffffffffffffffffffffffffffff169050919050565b8080611ba45750600073ffffffffffffffffffffffffffffffffffffffff168273ffffffffffffffffffffffffffffffffffffffff1614155b15611cd8576000611bb484611264565b9050600073ffffffffffffffffffffffffffffffffffffffff168373ffffffffffffffffffffffffffffffffffffffff1614158015611c1f57508273ffffffffffffffffffffffffffffffffffffffff168173ffffffffffffffffffffffffffffffffffffffff1614155b8015611c325750611c308184611068565b155b15611c7457826040517fa9fbf51f000000000000000000000000000000000000000000000000000000008152600401611c6b9190612418565b60405180910390fd5b8115611cd657838573ffffffffffffffffffffffffffffffffffffffff168273ffffffffffffffffffffffffffffffffffffffff167f8c5be1e5ebec7d5bd14f71427d1e84f3dd0314c0f7b2291e5b200ac8c7c3b92560405160405180910390a45b505b836004600085815260200190815260200160002060006101000a81548173ffffffffffffffffffffffffffffffffffffffff021916908373ffffffffffffffffffffffffffffffffffffffff16021790555050505050565b611d3b838383611ee6565b611def57600073ffffffffffffffffffffffffffffffffffffffff168373ffffffffffffffffffffffffffffffffffffffff1603611db057806040517f7e273289000000000000000000000000000000000000000000000000000000008152600401611da79190612721565b60405180910390fd5b81816040517f177e802f000000000000000000000000000000000000000000000000000000008152600401611de69291906130ce565b60405180910390fd5b505050565b611dfe8383611fa7565b611e13611e09611329565b6000858585611893565b505050565b606060006001611e27846120a0565b01905060008167ffffffffffffffff811115611e4657611e456124fc565b5b6040519080825280601f01601f191660200182016040528015611e785781602001600182028036833780820191505090505b509050600082602001820190505b600115611edb578080600190039150507f3031323334353637383961626364656600000000000000000000000000000000600a86061a8153600a8581611ecf57611ece6130f7565b5b04945060008503611e86575b819350505050919050565b60008073ffffffffffffffffffffffffffffffffffffffff168373ffffffffffffffffffffffffffffffffffffffff1614158015611f9e57508273ffffffffffffffffffffffffffffffffffffffff168473ffffffffffffffffffffffffffffffffffffffff161480611f5f5750611f5e8484611068565b5b80611f9d57508273ffffffffffffffffffffffffffffffffffffffff16611f85836112ec565b73ffffffffffffffffffffffffffffffffffffffff16145b5b90509392505050565b600073ffffffffffffffffffffffffffffffffffffffff168273ffffffffffffffffffffffffffffffffffffffff16036120195760006040517f64a0ae920000000000000000000000000000000000000000000000000000000081526004016120109190612418565b60405180910390fd5b600061202783836000611343565b9050600073ffffffffffffffffffffffffffffffffffffffff168173ffffffffffffffffffffffffffffffffffffffff161461209b5760006040517f73c6ac6e0000000000000000000000000000000000000000000000000000000081526004016120929190612418565b60405180910390fd5b505050565b600080600090507a184f03e93ff9f4daa797ed6e38ed64bf6a1f01000000000000000083106120fe577a184f03e93ff9f4daa797ed6e38ed64bf6a1f01000000000000000083816120f4576120f36130f7565b5b0492506040810190505b6d04ee2d6d415b85acef8100000000831061213b576d04ee2d6d415b85acef81000000008381612131576121306130f7565b5b0492506020810190505b662386f26fc10000831061216a57662386f26fc1000083816121605761215f6130f7565b5b0492506010810190505b6305f5e1008310612193576305f5e1008381612189576121886130f7565b5b0492506008810190505b61271083106121b85761271083816121ae576121ad6130f7565b5b0492506004810190505b606483106121db57606483816121d1576121d06130f7565b5b0492506002810190505b600a83106121ea576001810190505b80915050919050565b6000604051905090565b600080fd5b600080fd5b60007fffffffff0000000000000000000000000000000000000000000000000000000082169050919050565b61223c81612207565b811461224757600080fd5b50565b60008135905061225981612233565b92915050565b600060208284031215612275576122746121fd565b5b60006122838482850161224a565b91505092915050565b60008115159050919050565b6122a18161228c565b82525050565b60006020820190506122bc6000830184612298565b92915050565b600081519050919050565b600082825260208201905092915050565b60005b838110156122fc5780820151818401526020810190506122e1565b60008484015250505050565b6000601f19601f8301169050919050565b6000612324826122c2565b61232e81856122cd565b935061233e8185602086016122de565b61234781612308565b840191505092915050565b6000602082019050818103600083015261236c8184612319565b905092915050565b6000819050919050565b61238781612374565b811461239257600080fd5b50565b6000813590506123a48161237e565b92915050565b6000602082840312156123c0576123bf6121fd565b5b60006123ce84828501612395565b91505092915050565b600073ffffffffffffffffffffffffffffffffffffffff82169050919050565b6000612402826123d7565b9050919050565b612412816123f7565b82525050565b600060208201905061242d6000830184612409565b92915050565b61243c816123f7565b811461244757600080fd5b50565b60008135905061245981612433565b92915050565b60008060408385031215612476576124756121fd565b5b60006124848582860161244a565b925050602061249585828601612395565b9150509250929050565b6000806000606084860312156124b8576124b76121fd565b5b60006124c68682870161244a565b93505060206124d78682870161244a565b92505060406124e886828701612395565b9150509250925092565b600080fd5b600080fd5b7f4e487b7100000000000000000000000000000000000000000000000000000000600052604160045260246000fd5b61253482612308565b810181811067ffffffffffffffff82111715612553576125526124fc565b5b80604052505050565b60006125666121f3565b9050612572828261252b565b919050565b600067ffffffffffffffff821115612592576125916124fc565b5b61259b82612308565b9050602081019050919050565b82818337600083830152505050565b60006125ca6125c584612577565b61255c565b9050828152602081018484840111156125e6576125e56124f7565b5b6125f18482856125a8565b509392505050565b600082601f83011261260e5761260d6124f2565b5b813561261e8482602086016125b7565b91505092915050565b600080600080600060a08688031215612643576126426121fd565b5b60006126518882890161244a565b955050602086013567ffffffffffffffff81111561267257612671612202565b5b61267e888289016125f9565b945050604086013567ffffffffffffffff81111561269f5761269e612202565b5b6126ab888289016125f9565b935050606086013567ffffffffffffffff8111156126cc576126cb612202565b5b6126d8888289016125f9565b925050608086013567ffffffffffffffff8111156126f9576126f8612202565b5b612705888289016125f9565b9150509295509295909350565b61271b81612374565b82525050565b60006020820190506127366000830184612712565b92915050565b600060208284031215612752576127516121fd565b5b600082013567ffffffffffffffff8111156127705761276f612202565b5b61277c848285016125f9565b91505092915050565b600081519050919050565b600082825260208201905092915050565b6000819050602082019050919050565b6127ba81612374565b82525050565b60006127cc83836127b1565b60208301905092915050565b6000602082019050919050565b60006127f082612785565b6127fa8185612790565b9350612805836127a1565b8060005b8381101561283657815161281d88826127c0565b9750612828836127d8565b925050600181019050612809565b5085935050505092915050565b6000602082019050818103600083015261285d81846127e5565b905092915050565b6000606082019050818103600083015261287f8186612319565b905081810360208301526128938185612319565b905081810360408301526128a78184612319565b9050949350505050565b6000602082840312156128c7576128c66121fd565b5b60006128d58482850161244a565b91505092915050565b6128e78161228c565b81146128f257600080fd5b50565b600081359050612904816128de565b92915050565b60008060408385031215612921576129206121fd565b5b600061292f8582860161244a565b9250506020612940858286016128f5565b9150509250929050565b600067ffffffffffffffff821115612965576129646124fc565b5b61296e82612308565b9050602081019050919050565b600061298e6129898461294a565b61255c565b9050828152602081018484840111156129aa576129a96124f7565b5b6129b58482856125a8565b509392505050565b600082601f8301126129d2576129d16124f2565b5b81356129e284826020860161297b565b91505092915050565b60008060008060808587031215612a0557612a046121fd565b5b6000612a138782880161244a565b9450506020612a248782880161244a565b9350506040612a3587828801612395565b925050606085013567ffffffffffffffff811115612a5657612a55612202565b5b612a62878288016129bd565b91505092959194509250565b60008060408385031215612a8557612a846121fd565b5b6000612a938582860161244a565b9250506020612aa48582860161244a565b9150509250929050565b7f4e487b7100000000000000000000000000000000000000000000000000000000600052602260045260246000fd5b60006002820490506001821680612af557607f821691505b602082108103612b0857612b07612aae565b5b50919050565b6000606082019050612b236000830186612409565b612b306020830185612712565b612b3d6040830184612409565b949350505050565b60008190508160005260206000209050919050565b60006020601f8301049050919050565b600082821b905092915050565b600060088302612ba77fffffffffffffffffffffffffffffffffffffffffffffffffffffffffffffffff82612b6a565b612bb18683612b6a565b95508019841693508086168417925050509392505050565b6000819050919050565b6000612bee612be9612be484612374565b612bc9565b612374565b9050919050565b6000819050919050565b612c0883612bd3565b612c1c612c1482612bf5565b848454612b77565b825550505050565b600090565b612c31612c24565b612c3c818484612bff565b505050565b5b81811015612c6057612c55600082612c29565b600181019050612c42565b5050565b601f821115612ca557612c7681612b45565b612c7f84612b5a565b81016020851015612c8e578190505b612ca2612c9a85612b5a565b830182612c41565b50505b505050565b600082821c905092915050565b6000612cc860001984600802612caa565b1980831691505092915050565b6000612ce18383612cb7565b9150826002028217905092915050565b612cfa826122c2565b67ffffffffffffffff811115612d1357612d126124fc565b5b612d1d8254612add565b612d28828285612c64565b600060209050601f831160018114612d5b5760008415612d49578287015190505b612d538582612cd5565b865550612dbb565b601f198416612d6986612b45565b60005b82811015612d9157848901518255600182019150602085019450602081019050612d6c565b86831015612dae5784890151612daa601f891682612cb7565b8355505b6001600288020188555050505b505050505050565b7f4e487b7100000000000000000000000000000000000000000000000000000000600052601160045260246000fd5b6000612dfd82612374565b9150612e0883612374565b9250828201905080821115612e2057612e1f612dc3565b5b92915050565b6000612e3182612374565b9150612e3c83612374565b9250828203905081811115612e5457612e53612dc3565b5b92915050565b600081905092915050565b60008190508160005260206000209050919050565b60008154612e8781612add565b612e918186612e5a565b94506001821660008114612eac5760018114612ec157612ef4565b60ff1983168652811515820286019350612ef4565b612eca85612e65565b60005b83811015612eec57815481890152600182019150602081019050612ecd565b838801955050505b50505092915050565b6000612f098284612e7a565b915081905092915050565b7f4e487b7100000000000000000000000000000000000000000000000000000000600052603260045260246000fd5b6000612f4e82612374565b91507fffffffffffffffffffffffffffffffffffffffffffffffffffffffffffffffff8203612f8057612f7f612dc3565b5b600182019050919050565b600081905092915050565b6000612fa1826122c2565b612fab8185612f8b565b9350612fbb8185602086016122de565b80840191505092915050565b6000612fd38285612f96565b9150612fdf8284612f96565b91508190509392505050565b600081519050919050565b600082825260208201905092915050565b600061301282612feb565b61301c8185612ff6565b935061302c8185602086016122de565b61303581612308565b840191505092915050565b60006080820190506130556000830187612409565b6130626020830186612409565b61306f6040830185612712565b81810360608301526130818184613007565b905095945050505050565b60008151905061309b81612233565b92915050565b6000602082840312156130b7576130b66121fd565b5b60006130c58482850161308c565b91505092915050565b60006040820190506130e36000830185612409565b6130f06020830184612712565b9392505050565b7f4e487b7100000000000000000000000000000000000000000000000000000000600052601260045260246000fdfea2646970667358221220a92403b3ff140eaa93e67159d3566104e5fb59a8406125435a5bfbe7d7422ee964736f6c63430008140033",
  "linkReferences": {},
  "deployedLinkReferences": {}
}